{
  "contractName": "FederatedLearningContract",
  "abi": [
    {
      "inputs": [
        {
          "internalType": "uint256",
          "name": "_requiredUpdates",
          "type": "uint256"
        }
      ],
      "stateMutability": "nonpayable",
      "type": "constructor"
    },
    {
      "anonymous": false,
      "inputs": [
        {
          "indexed": false,
          "internalType": "address",
          "name": "clientAddress",
          "type": "address"
        }
      ],
      "name": "ClientRegistered",
      "type": "event"
    },
    {
      "anonymous": false,
      "inputs": [
        {
          "indexed": false,
          "internalType": "address",
          "name": "clientAddress",
          "type": "address"
        },
        {
          "indexed": false,
          "internalType": "bytes32",
          "name": "modelHash",
          "type": "bytes32"
        },
        {
          "indexed": false,
          "internalType": "uint256",
          "name": "reward",
          "type": "uint256"
        },
        {
          "indexed": false,
          "internalType": "uint256",
          "name": "round",
          "type": "uint256"
        }
      ],
      "name": "ClientUpdated",
      "type": "event"
    },
    {
      "anonymous": false,
      "inputs": [
        {
          "indexed": false,
          "internalType": "bytes32",
          "name": "modelHash",
          "type": "bytes32"
        },
        {
          "indexed": false,
          "internalType": "uint256",
          "name": "round",
          "type": "uint256"
        }
      ],
      "name": "GlobalModelUpdated",
      "type": "event"
    },
    {
      "anonymous": false,
      "inputs": [
        {
          "indexed": false,
          "internalType": "uint256",
          "name": "round",
          "type": "uint256"
        }
      ],
      "name": "NewRoundStarted",
      "type": "event"
    },
    {
      "anonymous": false,
      "inputs": [
        {
          "indexed": false,
          "internalType": "uint256",
          "name": "round",
          "type": "uint256"
        },
        {
          "indexed": false,
          "internalType": "uint256",
          "name": "participatingClients",
          "type": "uint256"
        }
      ],
      "name": "RoundCompleted",
      "type": "event"
    },
    {
      "inputs": [],
      "name": "aggregationComplete",
      "outputs": [
        {
          "internalType": "bool",
          "name": "",
          "type": "bool"
        }
      ],
      "stateMutability": "view",
      "type": "function",
      "constant": true
    },
    {
      "inputs": [
        {
          "internalType": "address",
          "name": "",
          "type": "address"
        }
      ],
      "name": "authorizedClients",
      "outputs": [
        {
          "internalType": "bool",
          "name": "",
          "type": "bool"
        }
      ],
      "stateMutability": "view",
      "type": "function",
      "constant": true
    },
    {
      "inputs": [
        {
          "internalType": "uint256",
          "name": "",
          "type": "uint256"
        }
      ],
      "name": "clientAddresses",
      "outputs": [
        {
          "internalType": "address",
          "name": "",
          "type": "address"
        }
      ],
      "stateMutability": "view",
      "type": "function",
      "constant": true
    },
    {
      "inputs": [
        {
          "internalType": "address",
          "name": "",
          "type": "address"
        }
      ],
      "name": "clientModelHashes",
      "outputs": [
        {
          "internalType": "bytes32",
          "name": "",
          "type": "bytes32"
        }
      ],
      "stateMutability": "view",
      "type": "function",
      "constant": true
    },
    {
      "inputs": [
        {
          "internalType": "address",
          "name": "",
          "type": "address"
        }
      ],
      "name": "clientRewards",
      "outputs": [
        {
          "internalType": "uint256",
          "name": "",
          "type": "uint256"
        }
      ],
      "stateMutability": "view",
      "type": "function",
      "constant": true
    },
    {
      "inputs": [],
      "name": "currentRound",
      "outputs": [
        {
          "internalType": "uint256",
          "name": "",
          "type": "uint256"
        }
      ],
      "stateMutability": "view",
      "type": "function",
      "constant": true
    },
    {
      "inputs": [
        {
          "internalType": "uint256",
          "name": "",
          "type": "uint256"
        }
      ],
      "name": "globalModelHashes",
      "outputs": [
        {
          "internalType": "bytes32",
          "name": "",
          "type": "bytes32"
        }
      ],
      "stateMutability": "view",
      "type": "function",
      "constant": true
    },
    {
      "inputs": [
        {
          "internalType": "address",
          "name": "",
          "type": "address"
        }
      ],
      "name": "hasUpdated",
      "outputs": [
        {
          "internalType": "bool",
          "name": "",
          "type": "bool"
        }
      ],
      "stateMutability": "view",
      "type": "function",
      "constant": true
    },
    {
      "inputs": [],
      "name": "owner",
      "outputs": [
        {
          "internalType": "address",
          "name": "",
          "type": "address"
        }
      ],
      "stateMutability": "view",
      "type": "function",
      "constant": true
    },
    {
      "inputs": [],
      "name": "requiredUpdates",
      "outputs": [
        {
          "internalType": "uint256",
          "name": "",
          "type": "uint256"
        }
      ],
      "stateMutability": "view",
      "type": "function",
      "constant": true
    },
    {
      "inputs": [],
      "name": "totalClientsUpdated",
      "outputs": [
        {
          "internalType": "uint256",
          "name": "",
          "type": "uint256"
        }
      ],
      "stateMutability": "view",
      "type": "function",
      "constant": true
    },
    {
      "inputs": [
        {
          "internalType": "address",
          "name": "clientAddress",
          "type": "address"
        }
      ],
      "name": "registerClient",
      "outputs": [],
      "stateMutability": "nonpayable",
      "type": "function"
    },
    {
      "inputs": [
        {
          "internalType": "bytes32",
          "name": "modelHash",
          "type": "bytes32"
        },
        {
          "internalType": "uint256",
          "name": "reward",
          "type": "uint256"
        }
      ],
      "name": "submitUpdate",
      "outputs": [],
      "stateMutability": "nonpayable",
      "type": "function"
    },
    {
      "inputs": [
        {
          "internalType": "bytes32",
          "name": "modelHash",
          "type": "bytes32"
        }
      ],
      "name": "submitGlobalModel",
      "outputs": [],
      "stateMutability": "nonpayable",
      "type": "function"
    },
    {
      "inputs": [],
      "name": "startNewRound",
      "outputs": [],
      "stateMutability": "nonpayable",
      "type": "function"
    },
    {
      "inputs": [],
      "name": "getClientCount",
      "outputs": [
        {
          "internalType": "uint256",
          "name": "",
          "type": "uint256"
        }
      ],
      "stateMutability": "view",
      "type": "function",
      "constant": true
    },
    {
      "inputs": [
        {
          "internalType": "uint256",
          "name": "_requiredUpdates",
          "type": "uint256"
        }
      ],
      "name": "setRequiredUpdates",
      "outputs": [],
      "stateMutability": "nonpayable",
      "type": "function"
    }
  ],
  "bytecode": "0x608060405260006006556000600760006101000a81548160ff021916908315150217905550600060085534801561003557600080fd5b506040516111f83803806111f88339818101604052602081101561005857600080fd5b8101908080519060200190929190505050336000806101000a81548173ffffffffffffffffffffffffffffffffffffffff021916908373ffffffffffffffffffffffffffffffffffffffff1602179055508060098190555050611138806100c06000396000f3fe608060405234801561001057600080fd5b506004361061010b5760003560e01c80638a19c8bc116100a25780639f144a26116100715780639f144a26146103ee578063aab25f231461040e578063bd85948c1461042c578063c5cc3a2e14610436578063f1987e11146104645761010b565b80638a19c8bc146103025780638d1d7e4b146103205780638da5cb5b1461037857806398de154f146103ac5761010b565b806347c80def116100de57806347c80def146102345780635a81018a1461026c578063619cbd821461028a57806363e326f5146102e45761010b565b80630b23d98f14610110578063143a17661461013e578063417839a21461019657806342a67b7f146101f0575b600080fd5b61013c6004803603602081101561012657600080fd5b81019080803590602001909291905050506104bc565b005b6101806004803603602081101561015457600080fd5b81019080803573ffffffffffffffffffffffffffffffffffffffff169060200190929190505050610623565b6040518082815260200191505060405180910390f35b6101d8600480360360208110156101ac57600080fd5b81019080803573ffffffffffffffffffffffffffffffffffffffff16906020019092919050505061063b565b60405180821515815260200191505060405180910390f35b6102326004803603602081101561020657600080fd5b81019080803573ffffffffffffffffffffffffffffffffffffffff16906020019092919050505061065b565b005b61026a6004803603604081101561024a57600080fd5b8101908080359060200190929190803590602001909291905050506108c9565b005b610274610c3b565b6040518082815260200191505060405180910390f35b6102cc600480360360208110156102a057600080fd5b81019080803573ffffffffffffffffffffffffffffffffffffffff169060200190929190505050610c48565b60405180821515815260200191505060405180910390f35b6102ec610c68565b6040518082815260200191505060405180910390f35b61030a610c6e565b6040518082815260200191505060405180910390f35b6103626004803603602081101561033657600080fd5b81019080803573ffffffffffffffffffffffffffffffffffffffff169060200190929190505050610c74565b6040518082815260200191505060405180910390f35b610380610c8c565b604051808273ffffffffffffffffffffffffffffffffffffffff16815260200191505060405180910390f35b6103d8600480360360208110156103c257600080fd5b8101908080359060200190929190505050610cb0565b6040518082815260200191505060405180910390f35b6103f6610cc8565b60405180821515815260200191505060405180910390f35b610416610cdb565b6040518082815260200191505060405180910390f35b610434610ce1565b005b6104626004803603602081101561044c57600080fd5b8101908080359060200190929190505050610f07565b005b6104906004803603602081101561047a57600080fd5b8101908080359060200190929190505050610fb5565b604051808273ffffffffffffffffffffffffffffffffffffffff16815260200191505060405180910390f35b60008054906101000a900473ffffffffffffffffffffffffffffffffffffffff1673ffffffffffffffffffffffffffffffffffffffff163373ffffffffffffffffffffffffffffffffffffffff1614610560576040517f08c379a0000000000000000000000000000000000000000000000000000000008152600401808060200182810382526021815260200180610ff26021913960400191505060405180910390fd5b600760009054906101000a900460ff166105c5576040517f08c379a000000000000000000000000000000000000000000000000000000000815260040180806020018281038252603d815260200180611071603d913960400191505060405180910390fd5b80600560006006548152602001908152602001600020819055507fcdbdee91dc34f18b29d2ff3ccb974cd6f6b686e55a779f80bcd38a940c6ffc0881600654604051808381526020018281526020019250505060405180910390a150565b60036020528060005260406000206000915090505481565b60026020528060005260406000206000915054906101000a900460ff1681565b60008054906101000a900473ffffffffffffffffffffffffffffffffffffffff1673ffffffffffffffffffffffffffffffffffffffff163373ffffffffffffffffffffffffffffffffffffffff16146106ff576040517f08c379a0000000000000000000000000000000000000000000000000000000008152600401808060200182810382526021815260200180610ff26021913960400191505060405180910390fd5b600160008273ffffffffffffffffffffffffffffffffffffffff1673ffffffffffffffffffffffffffffffffffffffff16815260200190815260200160002060009054906101000a900460ff16156107bf576040517f08c379a000000000000000000000000000000000000000000000000000000000815260040180806020018281038252601a8152602001807f436c69656e7420616c726561647920726567697374657265642e00000000000081525060200191505060405180910390fd5b60018060008373ffffffffffffffffffffffffffffffffffffffff1673ffffffffffffffffffffffffffffffffffffffff16815260200190815260200160002060006101000a81548160ff021916908315150217905550600a819080600181540180825580915050600190039060005260206000200160009091909190916101000a81548173ffffffffffffffffffffffffffffffffffffffff021916908373ffffffffffffffffffffffffffffffffffffffff1602179055507f2ce5ee634dc8e65bbbad43d4ca6b4413f261b6a5dd89d79f5db67892e4512d1a81604051808273ffffffffffffffffffffffffffffffffffffffff16815260200191505060405180910390a150565b600160003373ffffffffffffffffffffffffffffffffffffffff1673ffffffffffffffffffffffffffffffffffffffff16815260200190815260200160002060009054906101000a900460ff1661096b576040517f08c379a00000000000000000000000000000000000000000000000000000000081526004018080602001828103825260288152602001806110496028913960400191505060405180910390fd5b600760009054906101000a900460ff16156109d1576040517f08c379a000000000000000000000000000000000000000000000000000000000815260040180806020018281038252602d8152602001806110ae602d913960400191505060405180910390fd5b600260003373ffffffffffffffffffffffffffffffffffffffff1673ffffffffffffffffffffffffffffffffffffffff16815260200190815260200160002060009054906101000a900460ff1615610a74576040517f08c379a00000000000000000000000000000000000000000000000000000000081526004018080602001828103825260288152602001806110db6028913960400191505060405180910390fd5b6001600260003373ffffffffffffffffffffffffffffffffffffffff1673ffffffffffffffffffffffffffffffffffffffff16815260200190815260200160002060006101000a81548160ff02191690831515021790555081600460003373ffffffffffffffffffffffffffffffffffffffff1673ffffffffffffffffffffffffffffffffffffffff1681526020019081526020016000208190555080600360003373ffffffffffffffffffffffffffffffffffffffff1673ffffffffffffffffffffffffffffffffffffffff168152602001908152602001600020819055506008600081548092919060010191905055507f4bc3af639d8b324c3a329782f0459d9a9f46fcd189f8b40190ce196f55db3d54338383600654604051808573ffffffffffffffffffffffffffffffffffffffff16815260200184815260200183815260200182815260200194505050505060405180910390a160095460085410610c37576001600760006101000a81548160ff0219169083151502179055507f867bc48474afbd71c32542f493801861b7fa916f53f0e706e1bb8a3f47709c28600654600854604051808381526020018281526020019250505060405180910390a15b5050565b6000600a80549050905090565b60016020528060005260406000206000915054906101000a900460ff1681565b60095481565b60065481565b60046020528060005260406000206000915090505481565b60008054906101000a900473ffffffffffffffffffffffffffffffffffffffff1681565b60056020528060005260406000206000915090505481565b600760009054906101000a900460ff1681565b60085481565b60008054906101000a900473ffffffffffffffffffffffffffffffffffffffff1673ffffffffffffffffffffffffffffffffffffffff163373ffffffffffffffffffffffffffffffffffffffff1614610d85576040517f08c379a0000000000000000000000000000000000000000000000000000000008152600401808060200182810382526021815260200180610ff26021913960400191505060405180910390fd5b600760009054906101000a900460ff16610dea576040517f08c379a00000000000000000000000000000000000000000000000000000000081526004018080602001828103825260368152602001806110136036913960400191505060405180910390fd5b6006600081548092919060010191905055506000600760006101000a81548160ff021916908315150217905550600060088190555060005b600a80549050811015610ecb57600060026000600a8481548110610e4257fe5b9060005260206000200160009054906101000a900473ffffffffffffffffffffffffffffffffffffffff1673ffffffffffffffffffffffffffffffffffffffff1673ffffffffffffffffffffffffffffffffffffffff16815260200190815260200160002060006101000a81548160ff0219169083151502179055508080600101915050610e22565b507fae4cf40c31a833f14b2aee71da8cb55d5fd1944a9ed5b7696022328921f6e3176006546040518082815260200191505060405180910390a1565b60008054906101000a900473ffffffffffffffffffffffffffffffffffffffff1673ffffffffffffffffffffffffffffffffffffffff163373ffffffffffffffffffffffffffffffffffffffff1614610fab576040517f08c379a0000000000000000000000000000000000000000000000000000000008152600401808060200182810382526021815260200180610ff26021913960400191505060405180910390fd5b8060098190555050565b600a8181548110610fc257fe5b906000526020600020016000915054906101000a900473ffffffffffffffffffffffffffffffffffffffff168156fe4f6e6c79206f776e65722063616e2063616c6c20746869732066756e6374696f6e43616e6e6f74207374617274206e657720726f756e64206265666f726520636f6d706c6574696e672063757272656e7420726f756e644f6e6c79207265676973746572656420636c69656e74732063616e2073656e64207570646174657343616e6e6f74207375626d697420676c6f62616c206d6f64656c206265666f726520616c6c20726571756972656420636c69656e74732075706461746543757272656e7420726f756e6420697320636f6d706c6574652c207761697420666f72206e657720726f756e64436c69656e742068617320616c7265616479207570646174656420696e207468697320726f756e64a26469706673582212209d2313cc70655a7132e1c0bbfae92a9a655e5d87edda865c1ff44feee3d32e7f64736f6c63430007000033",
  "immutableReferences": {},
  "source": "// // SPDX-License-Identifier: MIT\r\n// pragma solidity >=0.4.22 <0.9.0;\r\n\r\n// /**\r\n//  * @title FederatedLearningContract\r\n//  * @dev Smart contract for validating and tracking federated learning model updates\r\n//  */\r\n// contract FederatedLearningContract {\r\n//     // Minimum number of validators required to validate a model update\r\n//     uint256 public constant MIN_VALIDATORS = 2;\r\n\r\n//     // Required percentage of positive validations to consider a model valid\r\n//     uint256 public constant VALIDATION_THRESHOLD_PERCENT = 70;\r\n\r\n//     // Admin address that can manage validators\r\n//     address public admin;\r\n\r\n//     // Array of validator addresses\r\n//     address[] public validators;\r\n\r\n//     // Mapping to check if an address is a validator\r\n//     mapping(address => bool) public isValidator;\r\n\r\n//     // Model update structure\r\n//     struct ModelUpdate {\r\n//         string modelHash; // Hash of the model weights (stored off-chain)\r\n//         string metadataJSON; // JSON string with metadata (reward, training size, etc.)\r\n//         uint256 timestamp; // When the update was submitted\r\n//         bool isValidated; // Whether the model has been validated\r\n//         uint256 validationCount; // Number of validators who have validated this model\r\n//         uint256 approvalCount; // Number of validators who approved this model\r\n//     }\r\n\r\n//     // Aggregated model structure\r\n//     struct AggregatedModel {\r\n//         string modelHash; // Hash of the aggregated model weights\r\n//         uint256 timestamp; // When the model was aggregated\r\n//         uint256 clientCount; // Number of clients included in aggregation\r\n//     }\r\n\r\n//     // Mapping: roundNumber => clientId => ModelUpdate\r\n//     mapping(uint256 => mapping(string => ModelUpdate)) public modelUpdates;\r\n\r\n//     // Mapping: roundNumber => AggregatedModel\r\n//     mapping(uint256 => AggregatedModel) public aggregatedModels;\r\n\r\n//     // Mapping: roundNumber => array of validated clientIds\r\n//     mapping(uint256 => string[]) public validatedClientsPerRound;\r\n\r\n//     // Validation tracking\r\n//     // roundNumber => clientId => modelHash => validator address => validated\r\n//     mapping(uint256 => mapping(string => mapping(string => mapping(address => bool))))\r\n//         public validations;\r\n\r\n//     // Events\r\n//     event ModelUpdateSubmitted(\r\n//         string clientId,\r\n//         uint256 roundNumber,\r\n//         string modelHash\r\n//     );\r\n//     event ModelValidated(\r\n//         string clientId,\r\n//         uint256 roundNumber,\r\n//         string modelHash,\r\n//         bool isValid\r\n//     );\r\n//     event ModelValidationCompleted(\r\n//         string clientId,\r\n//         uint256 roundNumber,\r\n//         string modelHash,\r\n//         bool passed\r\n//     );\r\n//     event AggregatedModelRegistered(uint256 roundNumber, string modelHash);\r\n//     event ValidatorAdded(address validator);\r\n//     event ValidatorRemoved(address validator);\r\n\r\n//     /**\r\n//      * @dev Constructor to set the admin and initial validators\r\n//      * @param _validators Array of initial validator addresses\r\n//      */\r\n//     constructor(address[] memory _validators) public {\r\n//         admin = msg.sender;\r\n\r\n//         // Add initial validators\r\n//         for (uint256 i = 0; i < _validators.length; i++) {\r\n//             isValidator[_validators[i]] = true;\r\n//             validators.push(_validators[i]);\r\n//         }\r\n//     }\r\n\r\n//     /**\r\n//      * @dev Modifier to restrict function access to admin only\r\n//      */\r\n//     modifier onlyAdmin() {\r\n//         require(msg.sender == admin, \"Only admin can call this function\");\r\n//         _;\r\n//     }\r\n\r\n//     /**\r\n//      * @dev Modifier to restrict function access to validators only\r\n//      */\r\n//     modifier onlyValidator() {\r\n//         require(\r\n//             isValidator[msg.sender],\r\n//             \"Only validators can call this function\"\r\n//         );\r\n//         _;\r\n//     }\r\n\r\n//     /**\r\n//      * @dev Add a new validator\r\n//      * @param _validator Address of the new validator\r\n//      */\r\n//     function addValidator(address _validator) external onlyAdmin {\r\n//         require(!isValidator[_validator], \"Address is already a validator\");\r\n//         isValidator[_validator] = true;\r\n//         validators.push(_validator);\r\n//         emit ValidatorAdded(_validator);\r\n//     }\r\n\r\n//     function getValidationStatus(\r\n//         string calldata clientId,\r\n//         uint256 roundNumber\r\n//     ) external view returns (string memory, bool, uint256, uint256) {\r\n//         ModelUpdate memory update = modelUpdates[roundNumber][clientId];\r\n//         return (\r\n//             update.modelHash,\r\n//             update.isValidated,\r\n//             update.validationCount,\r\n//             update.approvalCount\r\n//         );\r\n//     }\r\n//     /**\r\n//      * @dev Remove a validator\r\n//      * @param _validator Address of the validator to remove\r\n//      */\r\n//     function removeValidator(address _validator) external onlyAdmin {\r\n//         require(isValidator[_validator], \"Address is not a validator\");\r\n//         isValidator[_validator] = false;\r\n\r\n//         // Remove from validators array\r\n//         for (uint256 i = 0; i < validators.length; i++) {\r\n//             if (validators[i] == _validator) {\r\n//                 validators[i] = validators[validators.length - 1];\r\n//                 validators.pop();\r\n//                 break;\r\n//             }\r\n//         }\r\n\r\n//         emit ValidatorRemoved(_validator);\r\n//     }\r\n\r\n//     /**\r\n//      * @dev Get all validators\r\n//      * @return Array of validator addresses\r\n//      */\r\n//     function getValidators() external view returns (address[] memory) {\r\n//         return validators;\r\n//     }\r\n\r\n//     /**\r\n//      * @dev Submit a model update to be validated\r\n//      * @param clientId Identifier of the client\r\n//      * @param roundNumber Training round number\r\n//      * @param modelHash Hash of the model weights (stored off-chain)\r\n//      * @param metadataJSON JSON string with metadata (reward, training size, etc.)\r\n//      */\r\n//     function submitModelUpdate(\r\n//         string calldata clientId,\r\n//         uint256 roundNumber,\r\n//         string calldata modelHash,\r\n//         string calldata metadataJSON\r\n//     ) external {\r\n//         // Check if an update for this client and round already exists\r\n//         require(\r\n//             bytes(modelUpdates[roundNumber][clientId].modelHash).length == 0,\r\n//             \"Update already exists for this client and round\"\r\n//         );\r\n\r\n//         // Create and store the model update\r\n//         modelUpdates[roundNumber][clientId] = ModelUpdate({\r\n//             modelHash: modelHash,\r\n//             metadataJSON: metadataJSON,\r\n//             timestamp: block.timestamp,\r\n//             isValidated: false,\r\n//             validationCount: 0,\r\n//             approvalCount: 0\r\n//         });\r\n\r\n//         emit ModelUpdateSubmitted(clientId, roundNumber, modelHash);\r\n//     }\r\n\r\n//     /**\r\n//      * @dev Validate a model update (called by validators)\r\n//      * @param clientId Identifier of the client\r\n//      * @\r\n//      **/\r\n// }\r\n\r\n// SPDX-License-Identifier: MIT\r\npragma solidity >=0.4.22 <0.9.0;\r\n\r\ncontract FederatedLearningContract {\r\n    address public owner;\r\n    \r\n    mapping(address => bool) public authorizedClients;\r\n    mapping(address => bool) public hasUpdated;\r\n    mapping(address => uint256) public clientRewards;\r\n    mapping(address => bytes32) public clientModelHashes;\r\n    mapping(uint256 => bytes32) public globalModelHashes;\r\n    \r\n    uint256 public currentRound = 0;\r\n    bool public aggregationComplete = false;\r\n    uint256 public totalClientsUpdated = 0;\r\n    uint256 public requiredUpdates;\r\n    \r\n    address[] public clientAddresses;\r\n    \r\n    event ClientRegistered(address clientAddress);\r\n    event ClientUpdated(address clientAddress, bytes32 modelHash, uint256 reward, uint256 round);\r\n    event GlobalModelUpdated(bytes32 modelHash, uint256 round);\r\n    event RoundCompleted(uint256 round, uint256 participatingClients);\r\n    event NewRoundStarted(uint256 round);\r\n    \r\n    modifier onlyOwner() {\r\n        require(msg.sender == owner, \"Only owner can call this function\");\r\n        _;\r\n    }\r\n    \r\n    modifier onlyAuthorizedClient() {\r\n        require(authorizedClients[msg.sender], \"Only registered clients can send updates\");\r\n        _;\r\n    }\r\n    \r\n    constructor(uint256 _requiredUpdates) {\r\n        owner = msg.sender;\r\n        requiredUpdates = _requiredUpdates;\r\n    }\r\n    \r\n    function registerClient(address clientAddress) external onlyOwner {\r\n        require(!authorizedClients[clientAddress], \"Client already registered.\");\r\n        authorizedClients[clientAddress] = true;\r\n        clientAddresses.push(clientAddress);\r\n        emit ClientRegistered(clientAddress);\r\n    }\r\n    \r\n    function submitUpdate(bytes32 modelHash, uint256 reward) external onlyAuthorizedClient {\r\n        require(!aggregationComplete, \"Current round is complete, wait for new round\");\r\n        require(!hasUpdated[msg.sender], \"Client has already updated in this round\");\r\n        \r\n        // Client identity verified at this stage\r\n        hasUpdated[msg.sender] = true;\r\n        clientModelHashes[msg.sender] = modelHash;\r\n        clientRewards[msg.sender] = reward;\r\n        totalClientsUpdated++;\r\n        \r\n        emit ClientUpdated(msg.sender, modelHash, reward, currentRound);\r\n        \r\n        if (totalClientsUpdated >= requiredUpdates) {\r\n            aggregationComplete = true;\r\n            emit RoundCompleted(currentRound, totalClientsUpdated);\r\n        }\r\n    }\r\n    \r\n    function submitGlobalModel(bytes32 modelHash) external onlyOwner {\r\n        require(aggregationComplete, \"Cannot submit global model before all required clients update\");\r\n        \r\n        globalModelHashes[currentRound] = modelHash;\r\n        emit GlobalModelUpdated(modelHash, currentRound);\r\n    }\r\n    \r\n    function startNewRound() external onlyOwner {\r\n        require(aggregationComplete, \"Cannot start new round before completing current round\");\r\n        \r\n        currentRound++;\r\n        aggregationComplete = false;\r\n        totalClientsUpdated = 0;\r\n\r\n        for (uint i = 0; i < clientAddresses.length; i++) {\r\n            hasUpdated[clientAddresses[i]] = false;\r\n        }\r\n\r\n        emit NewRoundStarted(currentRound);\r\n    }\r\n    \r\n    function getClientCount() external view returns (uint256) {\r\n        return clientAddresses.length;\r\n    }\r\n    \r\n    function setRequiredUpdates(uint256 _requiredUpdates) external onlyOwner {\r\n        requiredUpdates = _requiredUpdates;\r\n    }\r\n}\r\n",
  "sourcePath": "C:\\Users\\harir\\Desktop\\project 2\\codes\\chain\\contracts\\FedCheck.sol",
  "compiler": {
    "name": "solc",
    "version": "0.7.0+commit.9e61f92b.Emscripten.clang"
  },
  "schemaVersion": "3.4.16",
  "updatedAt": "2025-03-23T13:48:17.074Z",
  "networkType": "ethereum",
  "devdoc": {
    "kind": "dev",
    "methods": {},
    "version": 1
  },
  "userdoc": {
    "kind": "user",
    "methods": {},
    "version": 1
  }
}